:100000000C9438000C9455000C9455000C94550039
:100010000C9455000C9455000C9455000C9455000C
:100020000C9455000C9455000C9455000C945500FC
:100030000C9455000C9455000C9455000C945500EC
:100040000C9455000C9455000C9455000C945500DC
:100050000C9455000C9455000C9455000C945500CC
:100060000C9455000C9455000C9455000C945500BC
:1000700011241FBECFEFD4E0DEBFCDBF11E0A0E062
:10008000B1E0E6E0FBE002C005900D92A231B107BD
:10009000D9F721E0A2E1B1E001C01D92AC31B20775
:1000A000E1F70E9405010C9481050C9400005F9B10
:1000B000FECF8CB108955D9BFECF8CB9089585B7B6
:1000C000806885BF80B7806280BF089590BD89B980
:1000D00088E18AB98EE880BD0895E0910801F09129
:1000E00009018EEA8083E0910801F091090181EA1B
:1000F0008083E0910801F09109018AED8083E0910D
:100100000801F091090182E18083E0910801F091FA
:10011000090188EC8083E0910801F091090188EAE7
:100120008083E0910801F09109018FE38083E091E1
:100130000801F091090185ED8083E0910801F091BB
:10014000090180E88083E0910801F091090181E8CC
:100150008083E0910801F091090180E58083E091BE
:100160000801F091090189ED8083E0910801F09187
:10017000090181E28083E0910801F091090180E2A8
:100180008083E0910801F091090182E08083E09191
:100190000801F09109018BED8083E0910801F09155
:1001A000090180E38083E0910801F09109018DEA63
:1001B0008083E0910801F09109011082E09108012B
:1001C000F091090184EA8083E0910801F09109012E
:1001D00086EA8083E0910801F09109018FEA80832B
:1001E0000895CF93DF9300D0CDB7DEB79A8389838C
:1001F000FE013196E491A0910601B0910701EC93C4
:100200000F900F90DF91CF9108958FE190E00E94C1
:10021000660067E570E08BE590E00E9429010E948E
:100220005F000E946D008EE090E00E94F100CAE045
:10023000D1E0DF93CF930E9474019FEF2FE781E01D
:10024000915020408040E1F700C000C00F900F9017
:10025000F0CF0F931F93CF93DF93EC018B010097A7
:1002600031F46115710519F480E090E038C06EE05A
:1002700070E081E090E00E945A03FC010097A1F336
:1002800080E883830115110571F01387028781E8E7
:1002900083838091120190911301892B21F4F093B3
:1002A0001301E09312012097C9F0D187C0878381A1
:1002B000826083838091140190911501892B71F4E0
:1002C000F0931501E09314018091160190911701AC
:1002D000892B21F4F0931701E0931601CF01DF91F0
:1002E000CF911F910F910895A0E0B0E0EAE7F1E00F
:1002F0000C945A05FE01359661917191AF01809180
:100300001401909115010E948801E2E00C94760599
:10031000ACE0B0E0EEE8F1E00C944A057C016B0142
:100320008A01FC0117821682838181FFBDC1CE0143
:1003300001964C01F7019381F60193FD859193FF9E
:1003400081916F01882309F4ABC1853239F493FDA3
:10035000859193FF81916F01853229F4B70190E077
:100360000E94BA04E7CF512C312C20E02032A0F4B7
:100370008B3269F030F4803259F0833269F42061B5
:100380002CC08D3239F0803339F4216026C02260D0
:10039000246023C0286021C027FD27C030ED380F1E
:1003A0003A3078F426FF06C0FAE05F9E300D112443
:1003B000532E13C08AE0389E300D1124332E206254
:1003C0000CC08E3221F426FD6BC1206406C08C3631
:1003D00011F4206802C0883641F4F60193FD85913E
:1003E00093FF81916F018111C1CF982F9F7D95540B
:1003F000933028F40C5F1F4FFFE3F9830DC0833661
:1004000031F0833771F0833509F05BC022C0F80109
:10041000808189830E5F1F4F44244394512C5401E3
:1004200015C03801F2E06F0E711CF801A080B18098
:1004300026FF03C0652D70E002C06FEF7FEFC5019E
:100440002C870E94AF042C0183012C852F77222E4C
:1004500017C03801F2E06F0E711CF801A080B18066
:1004600026FF03C0652D70E002C06FEF7FEFC5016E
:100470002C870E949D042C012C852068222E83014C
:1004800023FC1BC0832D90E048165906B0F4B70139
:1004900080E290E00E94BA043A94F4CFF50127FC80
:1004A000859127FE81915F01B70190E00E94BA0417
:1004B00031103A94F1E04F1A51084114510471F788
:1004C000E5C0843611F0893639F5F80127FF07C0F9
:1004D00060817181828193810C5F1F4F08C06081B0
:1004E0007181882777FD8095982F0E5F1F4F2F769B
:1004F000B22E97FF09C090958095709561957F4FBA
:100500008F4F9F4F2068B22E2AE030E0A4010E9456
:10051000EC04A82EA81844C0853729F42F7EB22EEB
:100520002AE030E025C0F22FF97FBF2E8F36C1F0D0
:1005300018F4883579F0B4C0803719F0883721F085
:10054000AFC02F2F2061B22EB4FE0DC08B2D846062
:10055000B82E09C024FF0AC09F2F9660B92E06C08E
:1005600028E030E005C020E130E002C020E132E0C8
:10057000F801B7FE07C060817181828193810C5FB1
:100580001F4F06C06081718180E090E00E5F1F4FB9
:10059000A4010E94EC04A82EA818FB2DFF77BF2E03
:1005A000B6FE0BC02B2D2E7FA51450F4B4FE0AC04E
:1005B000B2FC08C02B2D2E7E05C07A2C2B2D03C03B
:1005C0007A2C01C0752C24FF0DC0FE01EA0DF11D2F
:1005D0008081803311F4297E09C022FF06C0739404
:1005E000739404C0822F867809F0739423FD13C09E
:1005F00020FF06C05A2C731418F4530C5718732C90
:10060000731468F4B70180E290E02C870E94BA046A
:1006100073942C85F5CF731410F4371801C0312C66
:1006200024FF12C0B70180E390E02C870E94BA0437
:100630002C8522FF17C021FF03C088E590E002C08F
:1006400088E790E0B7010CC0822F867859F021FD31
:1006500002C080E201C08BE227FD8DE2B70190E08D
:100660000E94BA04A51438F4B70180E390E00E9418
:10067000BA045A94F7CFAA94F401EA0DF11D8081CF
:10068000B70190E00E94BA04A110F5CF332009F41D
:1006900051CEB70180E290E00E94BA043A94F6CFBE
:1006A000F7018681978102C08FEF9FEF2C96E2E1E0
:1006B0000C9466050F931F93CF93DF93869F800161
:1006C000879F100D969F100D1124C8010E9476037C
:1006D000EC01009729F0A80160E070E00E94A804F6
:1006E000CE01DF91CF911F910F910895CF93DF93AA
:1006F0008230910510F482E090E0E0911A01F091CF
:100700001B0120E030E0A0E0B0E0309739F14081FB
:10071000518148175907B8F04817590771F4828179
:100720009381109729F013969C938E9312972CC067
:1007300090931B0180931A0127C02115310531F0D8
:100740004217530718F0A901DB0101C0EF019A011C
:10075000BD01DF010280F381E02DD7CF21153105E6
:10076000F9F0281B390B2430310580F48A819B81F4
:100770006115710521F0FB019383828304C090937E
:100780001B0180931A01FE01329644C0FE01E20F64
:10079000F31F8193919322503109398328833AC002
:1007A0002091180130911901232B41F4209102016D
:1007B0003091030130931901209318012091000119
:1007C000309101012115310541F42DB73EB740911B
:1007D000040150910501241B350BE0911801F091A3
:1007E0001901E217F307A0F42E1B3F0B2817390756
:1007F00078F0AC014E5F5F4F2417350748F04E0F7D
:100800005F1F50931901409318018193919302C087
:10081000E0E0F0E0CF01DF91CF910895CF93DF9337
:10082000009709F487C0FC01329713821282C091AD
:100830001A01D0911B01209781F420813181280F6A
:10084000391F80911801909119018217930779F54A
:10085000F0931901E09318016DC0DE0120E030E053
:10086000AE17BF0750F412964D915C9113979D01FE
:100870004115510509F1DA01F3CFB383A283408119
:100880005181840F951F8A179B0771F48D919C915C
:100890001197840F951F02969183808312968D91F4
:1008A0009C911397938382832115310529F4F0934A
:1008B0001B01E0931A013EC0D9011396FC93EE93FD
:1008C00012974D915D91A40FB51FEA17FB0779F4BC
:1008D00080819181840F951F0296D90111969C9376
:1008E0008E938281938113969C938E931297E0E06E
:1008F000F0E08A819B81009719F0FE01EC01F9CFAD
:10090000CE01029628813981820F931F2091180110
:10091000309119012817390769F4309729F410929A
:100920001B0110921A0102C013821282D093190186
:10093000C0931801DF91CF910895FC01059061509B
:1009400070400110D8F7809590958E0F9F1F0895E5
:10095000DC0101C06D9341505040E0F70895FC0167
:100960006150704001900110D8F7809590958E0FDE
:100970009F1F08950F931F93CF93DF93182F092F75
:10098000EB018B8181FD03C08FEF9FEF20C082FFC1
:1009900010C04E815F812C813D81421753077CF44A
:1009A000E881F9819F012F5F3F4F398328831083AE
:1009B00006C0E885F985812F0995892B29F72E81B5
:1009C0003F812F5F3F4F3F832E83812F902FDF91F9
:1009D000CF911F910F910895FA01AA27283051F164
:1009E000203181F1E8946F936E7F6E5F7F4F8F4F60
:1009F0009F4FAF4FB1E03ED0B4E03CD0670F781FBF
:100A0000891F9A1FA11D680F791F8A1F911DA11DA3
:100A10006A0F711D811D911DA11D20D009F46894DC
:100A20003F912AE0269F11243019305D3193DEF684
:100A3000CF010895462F4770405D4193B3E00FD03A
:100A4000C9F7F6CF462F4F70405D4A3318F0495D25
:100A500031FD4052419302D0A9F7EACFB4E0A69508
:100A60009795879577956795BA95C9F7009761052A
:100A7000710508959B01AC010A2E06945795479580
:100A800037952795BA95C9F7620F731F841F951F75
:100A9000A01D08952F923F924F925F926F927F9286
:100AA0008F929F92AF92BF92CF92DF92EF92FF927E
:100AB0000F931F93CF93DF93CDB7DEB7CA1BDB0B2A
:100AC0000FB6F894DEBF0FBECDBF09942A883988CF
:100AD00048885F846E847D848C849B84AA84B984D6
:100AE000C884DF80EE80FD800C811B81AA81B981E2
:100AF000CE0FD11D0FB6F894DEBF0FBECDBFED01F6
:060B00000895F894FFCFF8
:100B060000001C0120000012001048656C6C6F216B
:020B16000000DD
:00000001FF
