:1000000071C000008FC000008DC000008BC00000D8
:1000100093C2000087C0000085C0000083C00000BC
:1000200081C000007FC000007DC000007BC00000D8
:1000300079C0000077C0000075C0000073C00000E8
:1000400071C000006FC000006DC000006BC00000F8
:1000500069C0000067C0000065C0000063C0000008
:1000600061C000005FC000005DC000005BC0000018
:1000700059C0000057C0000055C0000053C0000028
:1000800051C000004FC000004DC000004BC0000038
:1000900049C0000047C0000045C0000043C0000048
:1000A00041C000003FC000003DC000003BC0000058
:1000B00039C0000037C0000035C0000033C0000068
:1000C00031C000002FC000002DC000002BC0000078
:1000D00029C0000027C0000025C0000023C0000088
:1000E00021C0000011241FBECFEFD1E2DEBFCDBF83
:1000F00000E00CBF14E0A0E0B2E0E4E8F2E100E0D0
:100100000BBF02C007900D92AA3BB107D9F725E0BB
:10011000AAEBB4E001C01D92A930B207E1F720D2EA
:100120000C9440096DCFDF92EF92FF920F931F93D3
:10013000CF93DF938C018091BA04833010F010923A
:10014000BA04D091BA04D295D07F8D2FC5D3C82FD1
:100150008091BA041F928F9386E092E09F938F93D1
:100160008DD41F92CF938BE192E09F938F9386D48F
:10017000F801E080F180FF92EF928CE292E09F9391
:100180008F937CD489EF90E00197F1F700C00000D5
:10019000DD24D394DD0EB701769567957695679546
:1001A000769567958D2D76D3C2E0CD0F6E2D629535
:1001B000660F607E8C2F6ED3E3ECF9E03197F1F798
:1001C00000C000008D2D59D31F928F9383E492E0DD
:1001D0009F938F9353D48C2F50D31F928F938EE580
:1001E00092E09F938F934AD4F801628185E08D0F4E
:1001F00051D38DB79EB744960FB6F8949EBF0FBEED
:100200008DBFF8018281882371F0C0E0DA5FF801C8
:10021000EC0FF11D63818D2F8C0F3CD3CF5FF80164
:100220009281C917A0F38091BA04813039F018F097
:10023000823039F008C081E847D305C082E844D352
:1002400002C084E841D38091BA048F5F8093BA04DE
:10025000DF91CF911F910F91FF90EF90DF90089564
:10026000CF92DF92EF92FF920F931F93CF93DF9382
:100270008C01D62F81E0860F00D3F82E82E08D0FFF
:10028000FCD2C82FCF2CD12C1F92FF9288E792E08E
:100290009F938F93F3D3EC2EF12C1F92CF9380E991
:1002A00092E09F938F93EAD39C2D88278E299F29D4
:1002B00096958795929582958F7089279F7089274B
:1002C000F801918380839F938F9385EA92E09F93B7
:1002D0008F93D4D385E08D0FD0D28F70F8018283B5
:1002E0002DB73EB7245F3F4F0FB6F8943EBF0FBE09
:1002F0002DBF882371F0C0E0DA5F8D2F8C0FBDD247
:10030000F801EC0FF11D8383CF5FF8018281C817DC
:10031000A0F3DF91CF911F910F91FF90EF90DF90AD
:10032000CF9008955398F894E9E6F0E080818F7BB0
:100330008083808180688083EB9A78940895CF923F
:10034000DF92EF92FF920F931F93CF93DF93109260
:10035000BC041092BB0487EB92E09F938F938ED3E3
:1003600089EC92E09F938F9389D38CE286D2C82F39
:100370001F928F9381E093E09F938F937FD38DB7EC
:100380009EB708960FB6F8949EBF0FBE8DBF8C2FF8
:100390008370823079F1833009F455C0813009F0DF
:1003A0009FC060E683ED94E05BDFC3EDD4E089811C
:1003B0008F9388818F9383E193E09F938F935ED394
:1003C00086ED94E09F938F938CE193E09F938F93BE
:1003D00055D38A811F928F9386E293E09F938F93E8
:1003E0004DD3EDB7FEB73C960FB6F894FEBF0FBEE7
:1003F000EDBF95C060E784EF94E032DFC4EFD4E056
:1004000089818F9388818F9383E193E09F938F936A
:1004100035D387EF94E09F938F938CE193E09F9384
:100420008F932CD38A811F928F9386E293E09F93C0
:100430008F9324D38DB79EB70C960FB6F8949EBFBA
:100440000FBE8DBF6CC060E683ED94E009DF60E70E
:1004500084EF94E005DFC3EDD4E089818F93888138
:100460008F930F2EF3E1EF2EF3E0FF2EF02DFF928E
:10047000EF9204D386ED94E09F938F930CE113E009
:100480001F930F93FBD28A811F928F93C6E2D3E012
:10049000DF93CF93F3D20F2EF4EFCF2EF4E0DF2EC5
:1004A000F02DF60181818F9380818F93FF92EF92DF
:1004B000E5D287EF94E09F938F931F930F93DED243
:1004C000F60182811F928F93DF93CF93D7D2EDB73E
:1004D000FEB778960FB6F894FEBF0FBEEDBF1FC0F3
:1004E00083E393E09F938F93C9D289E593E09F9331
:1004F0008F93C4D28DE2F0D11F928F9380E893E066
:100500009F938F93BBD240E060EA8CE2F2D18DB72B
:100510009EB708960FB6F8949EBF0FBE8DBF40E001
:1005200063E08CE2E6D1DF91CF911F910F91FF90B4
:10053000EF90DF90CF9008951F920F920FB60F9219
:1005400011248F939F9381E090E09093BC0480935B
:10055000BB049F918F910F900FBE0F901F90189525
:10056000CF93DF9300D01F92CDB7DEB787E690E040
:1005700020D264EE74E08CEE94E036D2D3DE03D267
:100580008BE893E09F938F9379D280E4C6D1EEED10
:10059000F4E081E090E09183808358E4538325E682
:1005A000248389E68583A1EEB4E00D900020E9F76D
:1005B000CD01825E94408283EDEBF4E082E090E036
:1005C0009183808386E78383248332E7358344E6FF
:1005D000468327838EE680878AE3818789E2828744
:1005E000A0ECB4E00D900020E9F7CD01815C9440CF
:1005F0008283E8ECF4E083E090E09183808381E300
:10060000838382E3848383E3858385E3868387838F
:1006100086E3808787E3818788E38287ABECB4E059
:100620000D900020E9F7CD018C5C94408283E9EEC7
:10063000F4E084E090E091838083538381E68483B7
:100640004583268390E2978392E69087318782875D
:10065000ACEEB4E00D900020E9F7CD018D5E944042
:1006600082830F900F900F2EFAEA4F2EF3E05F2E49
:10067000F02D0F2EF3E12F2EF3E03F2EF02D0F2E55
:10068000FCE1AF2EF3E0BF2EF02D0F2EF6E2CF2EC1
:10069000F3E0DF2EF02D8DEB94E089839A8381E0E7
:1006A00090E00F2EFEEDEF2EF4E0FF2EF02D0F2E3A
:1006B000F1EE6F2EF4E07F2EF02D08EC14E09C8319
:1006C0008B8305C0EB81FC813196FC83EB838B80AF
:1006D0009C80F1E08F1A91085F924F92CFD12FDE6C
:1006E0000F900F9021E08216910469F158F092E08A
:1006F0008916910409F44DC0E3E08E16910409F4C3
:100700006BC099C08EEA93E09F938F93B7D1F701A6
:1007100081818F9380818F933F922F92AFD17F926F
:100720006F92BF92AF92AAD1F70182811F928F93ED
:10073000DF92CF92A3D1C701F6DC0FB6F894DEBFEB
:100740000FBECDBF90C0EFEDF3E0FF93EF9396D1D6
:100750008091BE048F93EDEBF4E080818F933F9204
:100760002F928CD180EC94E09F938F93BF92AF92A5
:1007700085D18091BF041F928F93DF92CF927ED15B
:1007800089819A81D0DC0FB6F894DEBF0FBECDBF51
:100790006AC0E1E1F4E0FF93EF9370D1F801818149
:1007A0008F9380818F933F922F9268D18BEC94E04E
:1007B0009F938F93BF92AF9261D1F80182811F9274
:1007C0008F93DF92CF925AD1C801ADDC0FB6F89467
:1007D000DEBF0FBECDBF47C083E494E09F938F93ED
:1007E0004DD18091EA048F93E9EEF4E080818F93FC
:1007F0003F922F9243D18CEE94E09F938F93BF92C0
:10080000AF923CD18091EB041F928F93DF92CF92F5
:1008100035D189EE94E087DCFFEF29E688E1F150DD
:1008200020408040E1F700C000000FB6F894DEBF22
:100830000FBECDBF0EC0FFEF29E688E1F15020408A
:100840008040E1F700C00000EB81FC8134970CF49C
:1008500039CFFFEF23ED80E3F15020408040E1F7F6
:1008600000C000001CCF9FEFE9E6F8E19150E040A6
:10087000F040E1F700C0000025CFCF93C82F95D0FE
:1008800083E087D08C2F85D089D0C82F90D08C2F33
:10089000CF910895CF93DF93D82FC62F86D082E0D3
:1008A00078D08D2F76D08C2F74D081D0DF91CF91DE
:1008B00008957BD080EC6DD07AD083EC99E00197DD
:1008C000F1F700C000000895CF93C82F6ED08C2F91
:1008D00060D06DD0CF910895CF93C82F66D083E0BC
:1008E00058D08C2F56D05AD0C82F61D08C2FCF9192
:1008F00008951F93CF93DF93182FD62FC42F55D071
:1009000085E047D0812F45D08D2F43D08C2F41D00B
:100910004ED0DF91CF911F910895CF93DF93D82FC1
:10092000C8DF8EE0D9DFC82F1F928F9385E794E050
:100930009F938F93A3D00F900F900F900F90C0FFB5
:1009400007C083E894E09F938F9398D00F900F9007
:1009500040E06CE58BE2CDDF43EA6FEF8BE2C9DF6D
:100960006D2F8FE097DF8EE0B7DF1F928F9388EABD
:1009700094E09F938F9382D00F900F900F900F90E1
:10098000DF91CF91089587E884B981E58CBD2F9AD6
:1009900008958EBD0DB407FEFDCF089581E08EBD94
:1009A0000DB407FEFDCF8EB508952F9808952F9AA8
:1009B00008959093C5008093C40088E18093C1009E
:1009C0008EE08093C2000895E0ECF0E080818823FF
:1009D000ECF78091C6000895E0ECF0E0908195FF7F
:1009E000FDCF8093C60008950F931F93CF93DF939D
:1009F000009731F46115710519F480E090E039C079
:100A00008B01EC016EE070E081E090E047D2FC01E8
:100A1000892B99F380E883830115110571F0138701
:100A2000028781E883838091FF0490910005892BE0
:100A300021F4F0930005E093FF042097C9F0D187DB
:100A4000C087838182608383809101059091020534
:100A5000892B71F4F0930205E09301058091030561
:100A600090910405892B21F4F0930405E09303058C
:100A7000CF01DF91CF911F910F910895CF93DF9315
:100A8000CDB7DEB7AE014A5F5F4FFA016191719158
:100A9000AF01809101059091020503D0DF91CF91C4
:100AA00008952F923F924F925F926F927F928F9212
:100AB0009F92AF92BF92CF92DF92EF92FF920F93ED
:100AC0001F93CF93DF93CDB7DEB72B970FB6F89474
:100AD000DEBF0FBECDBF6C017B018A01FC01178216
:100AE0001682838181FFBFC1CE0101963C01F601D0
:100AF0009381F70193FD859193FF81917F01882375
:100B000009F4ADC1853239F493FD859193FF81914C
:100B10007F01853221F4B60190E018D3E8CF912C03
:100B2000212C312CFFE1F315D8F08B3279F038F419
:100B3000803279F08332A1F4232D20611DC08D32E3
:100B400061F0803369F4232D216016C0832D82600B
:100B5000382EE32DE4603E2E2AC0F32DF8601DC030
:100B600037FC2DC020ED280F2A3040F08E32B9F42A
:100B700036FC75C1232D2064322E19C036FE06C006
:100B80008AE0989E200D1124922E11C0EAE02E9E3C
:100B9000200D1124222EF32DF0623F2E08C08C363A
:100BA00021F4832D8068382E02C0883641F4F70185
:100BB00093FD859193FF81917F018111B3CF982F90
:100BC0009F7D9554933028F40C5F1F4F9FE39983CA
:100BD0000DC0833631F0833771F0833509F055C08D
:100BE00020C0F801808189830E5F1F4F8824839481
:100BF000912C530112C02801F2E04F0E511CF80154
:100C0000A080B18036FE03C0692D70E002C06FEF96
:100C10007FEFC50190D24C018201F32DFF773F2E6B
:100C200015C0280122E0420E511CF801A080B180BD
:100C300036FE03C0692D70E002C06FEF7FEFC50183
:100C400068D24C01F32DF0683F2E820133FC19C0AD
:100C5000822D90E088169906A0F4B60180E290E01B
:100C600075D22A94F5CFF50137FC859137FE819135
:100C70005F01B60190E06AD221102A9421E0821A25
:100C800091088114910479F7E1C0843611F0893616
:100C900039F5F80137FE07C0608171818281938147
:100CA0000C5F1F4F08C060817181072E000C880BFC
:100CB000990B0E5F1F4FF32DFF763F2E97FF09C054
:100CC00090958095709561957F4F8F4F9F4FF068FD
:100CD0003F2E2AE030E0A30175D2882E861844C04A
:100CE000853731F4232D2F7EB22E2AE030E025C047
:100CF000932D997FB92E8F36C1F018F4883579F08D
:100D0000AEC0803719F0883721F0A9C0E92FE06123
:100D1000BE2EB4FE0DC0FB2DF460BF2E09C034FE04
:100D20000AC0292F2660B22E06C028E030E005C098
:100D300020E130E002C020E132E0F801B7FE07C058
:100D400060817181828193810C5F1F4F06C0608139
:100D5000718180E090E00E5F1F4FA30133D2882E97
:100D60008618FB2DFF773F2E36FE0DC0232D2E7FDC
:100D7000A22E891458F434FE0BC032FC09C0832D16
:100D80008E7EA82E05C0B82CA32C03C0B82C01C0A1
:100D9000B92CA4FE0FC0FE01E80DF11D8081803347
:100DA00021F49A2D997EA92E09C0A2FE06C0B39403
:100DB000B39404C08A2D867809F0B394A3FC10C0C4
:100DC000A0FE06C0B21480F4280C922C9B180DC013
:100DD000B21458F4B60180E290E0B8D1B394F8CFE1
:100DE000B21418F42B1802C0982C212CA4FE0FC0AA
:100DF000B60180E390E0AAD1A2FE16C0A1FC03C018
:100E000088E790E002C088E590E0B6010CC08A2D2A
:100E1000867851F0A1FE02C08BE201C080E2A7FCFF
:100E20008DE2B60190E092D1891430F4B60180E3EE
:100E300090E08CD19A94F8CF8A94F301E80DF11DDB
:100E40008081B60190E082D18110F6CF222009F492
:100E50004ECEB60180E290E079D12A94F7CFF60128
:100E60008681978102C08FEF9FEF2B960FB6F89483
:100E7000DEBF0FBECDBFDF91CF911F910F91FF90CD
:100E8000EF90DF90CF90BF90AF909F908F907F902A
:100E90006F905F904F903F902F9008950F931F9306
:100EA000CF93DF93869F8001879F100D969F100D33
:100EB0001124C8010DD0EC01009721F0A80160E0D9
:100EC00070E032D1CE01DF91CF911F910F91089543
:100ED0000F931F93CF93DF938230910510F482E03C
:100EE00090E0E0910705F091080520E030E0A0E0F7
:100EF000B0E0309719F14081518102811381481788
:100F00005907C8F08417950769F4109731F01296C5
:100F10000C93129713961C9327C000930705109308
:100F2000080522C02115310519F04217530718F49E
:100F30009A01BD01EF01DF01F801DBCF2115310579
:100F4000F9F0281B390B2430310580F48A819B810C
:100F50006115710521F0FB019383828304C0909396
:100F6000080580930705FE01329644C0FE01E20F9A
:100F7000F31F8193919322503109398328833AC01A
:100F80002091050530910605232B41F420910202A2
:100F9000309103023093060520930505209100024D
:100FA000309101022115310541F42DB73EB7409132
:100FB000040250910502241B350BE0910505F091C8
:100FC0000605E217F307A0F42E1B3F0B281739077D
:100FD00078F0AC014E5F5F4F2417350748F04E0F95
:100FE0005F1F50930605409305058193919302C0BE
:100FF000E0E0F0E0CF01DF91CF911F910F910895D4
:10100000CF93DF93009709F481C0FC0132971382DC
:101010001282A0910705B0910805109781F42081F4
:101020003181820F931F2091050530910605281705
:10103000390751F5F0930605E093050567C0ED010A
:1010400020E030E0CE17DF0740F44A815B819E014B
:1010500041155105F1F0EA01F5CFD383C2834081F8
:101060005181840F951FC817D90759F48881998138
:10107000840F951F0296918380838A819B8193833D
:1010800082832115310529F4F0930805E0930705C3
:101090003DC0E901FB83EA8349915991C40FD51FF3
:1010A000EC17FD0761F480819181840F951F0296F2
:1010B000E90199838883828193819B838A83E0E01D
:1010C000F0E012968D919C911397009719F0FD0115
:1010D000DC01F7CF8D919C9111979D012E5F3F4FC1
:1010E000820F931F209105053091060528173907B7
:1010F00069F4309729F4109208051092070502C090
:1011000013821282B0930605A0930505DF91CF915B
:101110000895FC010590615070400110D8F780954A
:1011200090958E0F9F1F0895DC0101C06D93415073
:101130005040E0F70895FC016150704001900110AB
:10114000D8F7809590958E0F9F1F08950F931F934A
:10115000CF93DF93FB01238121FD03C08FEF9FEF2E
:101160002CC022FF16C04681578124813581421749
:10117000530744F4A081B1819D012F5F3F4F31831C
:1011800020838C93268137812F5F3F4F37832683BF
:1011900014C08B01EC01FB010084F185E02D199551
:1011A000892BE1F6D80116968D919C91179701969F
:1011B00017969C938E931697CE01DF91CF911F9136
:1011C0000F910895FA01AA27283051F1203181F1B9
:1011D000E8946F936E7F6E5F7F4F8F4F9F4FAF4F3F
:1011E000B1E03ED0B4E03CD0670F781F891F9A1F52
:1011F000A11D680F791F8A1F911DA11D6A0F711D06
:10120000811D911DA11D20D009F468943F912AE011
:10121000269F11243019305D3193DEF6CF010895F9
:10122000462F4770405D4193B3E00FD0C9F7F6CF2A
:10123000462F4F70405D4A3318F0495D31FD4052F2
:10124000419302D0A9F7EACFB4E0A6959795879588
:1012500077956795BA95C9F7009761057105089567
:101260009B01AC010A2E0694579547953795279513
:10127000BA95C9F7620F731F841F951FA01D0895AB
:04128000F894FFCF10
:101284000000090520000A0D4D657373616765430D
:101294006F756E743A2025640A0D005458207374D7
:1012A400617475733A2025780A0A0D004944207246
:1012B4006561642D666F722D73656E643A202578BE
:1012C4000A0D0049446869676820726561642D6687
:1012D4006F722D73656E643A2025780A0D004944B7
:1012E4006C6F7720726561642D666F722D73656E05
:1012F400643A2025780A0D000A0D49446869676834
:101304002072656365697665643A2025780A0D0064
:1013140049446C6F772072656365697665643A2029
:1013240025780A0D00494420726563656976656411
:101334003A2025780A0D000A0A720D43414E2049CD
:101344006E74657272757074002A2A2A2A2A2A2AEF
:101354002A2A2A2A2A2A2A2A2A2A2A2A2A205245B0
:1013640043454956454420444154412A2A2A2A2ABD
:101374002A2A2A2A2A2A2A2A2A2A2A2A2A2A0A0D06
:10138400000A0D43414E494E5446203A2025780A1E
:101394000A0D0049443A2025640A0D006D73673A2A
:1013A4002025730A0D006D73674C656E3A20256421
:1013B4000A0D004552524F5221212052656365693E
:1013C400766564206D6573736167652077697468F9
:1013D400206572726F720A0D005768617420646F21
:1013E40020796F752077616E7420746F20646F208C
:1013F40061626F757420746869733F3F3F0A0D0022
:10140400454C46473A2025780A0D00496E697469AF
:10141400616C697A6174696F6E206F66204D435008
:10142400323531352E2E2E0A0D00486569000A0A20
:101434000D2A2A2A2A2A2A2A2A2A2A2A2A53454EBD
:1014440044494E47204D53473A2064617461202A31
:101454002A2A2A2A2A2A2A2A2A2A2A2A0A0D000A6F
:101464000A0D2A2A2A2A2A2A2A2A2A2A2A2A5345D1
:101474004E44494E47204D53473A206461746131CC
:10148400202A2A2A2A2A2A2A2A2A2A2A2A2A0A0DFF
:10149400000A0A0D2A2A2A2A2A2A2A2A2A2A2A2A2F
:1014A40053454E44494E47204D53473A2064617496
:1014B4006132202A2A2A2A2A2A2A2A2A2A2A2A2A53
:1014C4000A0D000A0A0D2A2A2A2A2A2A2A2A2A2A3C
:1014D4002A2A53454E44494E47204D53473A2064E7
:1014E40061746133202A2A2A2A2A2A2A2A2A2A2AA1
:1014F4002A2A0A0D0043414E535441543A20257878
:101504000A0D004D435032353135204E4F54206979
:101514006E20636F6E66696775726174696F6E20A1
:101524006D6F6465210A0D000A0A43414E5354410C
:0A153400543A2025780A0A0D000041
:00000001FF
