S00D000055534152542E7372656388
S11300000C9438000C9442000C9442000C9442006E
S11300100C9442000C9442000C9442000C94420054
S11300200C9442000C9442000C9442000C94420044
S11300300C9442000C9442000C9442000C94420034
S11300400C9442000C9442000C9442000C94420024
S11300500C9442000C9442000C9442000C94420014
S11300600C9442000C9442000C9442000C94420004
S113007011241FBECFEFD4E0DEBFCDBF0E945300DA
S11300800C9470000C94000090BD89B988E18AB981
S11300908EE880BD08955F9BFECF8CB108955D9B73
S11300A0FECF8CB908958FE190E00E94440087B39D
S11300B08FEF87BB88B3809588BB0E944B002FEFDE
S11300C03FE791E0215030409040E1F700C000C08C
S11300D08E5F0E944F0084E190E00197F1F7EACF30
S10700E0F894FFCFBE
S9030000FC
