:100000000C943E000C945B000C945B000C945B0021
:100010000C945B000C945B000C945B000C945B00F4
:100020000C945B000C945B000C945B000C945B00E4
:100030000C945B000C945B000C945B000C945B00D4
:100040000C945B000C945B000C945B000C945B00C4
:100050000C945B000C945B000C945B000C945B00B4
:100060000C945B000C945B000C945B000C945B00A4
:100070006364696E6F70737578585B0011241FBEDE
:10008000CFEFD4E0DEBFCDBF11E0A0E0B1E0ECEAFD
:10009000F0E102C005900D92A233B107D9F721E03B
:1000A000A2E3B1E001C01D92AC33B207E1F70E94B8
:1000B0006C000C9454080C9400005F9BFECF8CB134
:1000C00008955D9BFECF8CB9089590BD89B988E1F4
:1000D0008AB98EE880BD0895CF93DF931F92CDB784
:1000E000DEB781E689838FE190E00E94650087B3E7
:1000F0008FEF87BB6DE570E081E690E00E94BC0069
:1001000089810E94610086E091E09F938F930E9415
:1001100007010F900F900F2EFDE0CF2EF1E0DF2EA4
:10012000F02DCE0101965C010F2EFEE1EF2EF1E0E5
:10013000FF2EF02D01E211E0DF92CF920E94070125
:10014000BF92AF92FF92EF920E941D0189811F9290
:100150008F931F930F930E9407019FEF2FE781E07A
:10016000915020408040E1F700C000C00FB6F894E5
:10017000DEBF0FBECDBFE0CF0F931F93CF93DF93B2
:10018000009731F46115710519F480E090E03AC0F0
:100190008B01EC016EE070E081E090E00E94B3051D
:1001A000FC01892B91F380E883830115110571F01F
:1001B0001387028781E88383809132019091330114
:1001C000892B21F4F0933301E09332012097C9F099
:1001D000D187C0878381826083838091340190912D
:1001E0003501892B71F4F0933501E093340180914E
:1001F000360190913701892B21F4F0933701E09378
:100200003601CF01DF91CF911F910F910895A0E0AA
:10021000B0E0EDE0F1E00C942D08AE014B5F5F4FD4
:10022000FA0161917191AF01809134019091350192
:100230000E943301E2E00C944908A0E0B0E0E3E260
:10024000F1E00C942D08AE014B5F5F4FFA01619114
:100250007191AF0180913201909133010E94850428
:10026000E2E00C944908ACE0B0E0E9E3F1E00C9482
:100270001D087C016B018A01FC01178216828381B3
:1002800081FFBDC1CE0101964C01F7019381F601BA
:1002900093FD859193FF81916F01882309F4ABC190
:1002A000853239F493FD859193FF81916F018532F9
:1002B00029F4B70190E00E946B07E7CF512C312C55
:1002C00020E02032A0F48B3269F030F4803259F013
:1002D000833269F420612CC08D3239F0803339F4D7
:1002E000216026C02260246023C0286021C027FD31
:1002F00027C030ED380F3A3078F426FF06C0FAE018
:100300005F9E300D1124532E13C08AE0389E300DAD
:100310001124332E20620CC08E3221F426FD6BC1D5
:10032000206406C08C3611F4206802C0883641F47F
:10033000F60193FD859193FF81916F018111C1CFEA
:10034000982F9F7D9554933028F40C5F1F4FFFE347
:10035000F9830DC0833631F0833771F0833509F0AE
:100360005BC022C0F801808189830E5F1F4F442447
:100370004394512C540115C03801F2E06F0E711CEA
:10038000F801A080B18026FF03C0652D70E002C097
:100390006FEF7FEFC5012C870E9422072C0183019C
:1003A0002C852F77222E17C03801F2E06F0E711CBA
:1003B000F801A080B18026FF03C0652D70E002C067
:1003C0006FEF7FEFC5012C870E9410072C012C8551
:1003D0002068222E830123FC1BC0832D90E0481649
:1003E0005906B0F4B70180E290E00E946B073A949E
:1003F000F4CFF50127FC859127FE81915F01B701BC
:1004000090E00E946B0731103A94F1E04F1A5108C6
:100410004114510471F7E5C0843611F0893639F57D
:10042000F80127FF07C060817181828193810C5F91
:100430001F4F08C060817181072E000C880B990B3B
:100440000E5F1F4F2F76722E97FF09C090958095F3
:10045000709561957F4F8F4F9F4F2068722E2AE0D5
:1004600030E0A4010E94BC07A82EA81844C085371C
:1004700029F42F7EB22E2AE030E025C0F22FF97F3A
:10048000BF2E8F36C1F018F4883579F0B4C08037AC
:1004900019F0883721F0AFC02F2F2061B22EB4FEA3
:1004A0000DC08B2D8460B82E09C024FF0AC09F2F79
:1004B0009660B92E06C028E030E005C020E130E0AB
:1004C00002C020E132E0F801B7FE07C0608171810F
:1004D000828193810C5F1F4F06C06081718180E033
:1004E00090E00E5F1F4FA4010E94BC07A82EA81821
:1004F000FB2DFF777F2E76FE0BC0372D3E7FA51498
:1005000050F474FE0AC072FC08C0372D3E7E05C050
:10051000BA2C372D03C0BA2C01C0B52C34FF0DC046
:10052000FE01EA0DF11D8081803311F4397E09C08E
:1005300032FF06C0B394B39404C0832F867809F0C9
:10054000B39433FD13C030FF06C05A2CB31418F413
:10055000530C5B18B32CB31468F4B70180E290E03D
:100560003C870E946B07B3943C85F5CFB31410F41D
:100570003B1801C0312C34FF12C0B70180E390E07A
:100580003C870E946B073C8532FF17C031FD03C0DA
:1005900088E790E002C088E590E0B7010CC0832FA7
:1005A000867859F031FF02C08BE201C080E237FD4E
:1005B0008DE2B70190E00E946B07A51438F4B701F3
:1005C00080E390E00E946B075A94F7CFAA94F4015D
:1005D000EA0DF11D8081B70190E00E946B07A11028
:1005E000F5CF332009F451CEB70180E290E00E94AC
:1005F0006B073A94F6CFF7018681978102C08FEF9F
:100600009FEF2C96E2E10C94390820FD09C0FC0113
:1006100023FD05C022FF02C07383628351834083A0
:10062000089544FD10C046FD10C0DB01FC01AA0F77
:10063000BB1FEE1FFF1F1094D1F76A0F7B1F8E1F89
:100640009F1F31E003C033E001C034E0660F771F25
:10065000881F991F3150D1F7620F711D811D911DA7
:1006600008950F931F93CF93DF938C01C8010E94CD
:100670002D07EC0197FD08C00E94FC06892BB1F7FD
:10068000B801CE010E94A307CE01DF91CF911F9147
:100690000F910895A1E0B0E0E0E5F3E00C942308A9
:1006A0008C01C62E7A0129830E942D07AC015527A3
:1006B00029814B32510521F04D32510569F42068F2
:1006C000CA94C11002C080E076C0C80129830E948C
:1006D0002D07298197FDF7CF322F3D7FD32E322F63
:1006E000307349F5803339F5BB24BA94BC0C09F456
:1006F0004EC0C80129830E942D07298197FD47C05C
:10070000382F3F7D383569F48D2D8264D82ECA94F8
:10071000CA94CC20E1F1C8010E942D0797FF0BC0BD
:1007200036C026FF04C02D2D2260D22E03C03D2DE1
:100730003261D32ECB2C812C912C540120ED280F2B
:10074000283080F0D4FE04C0B8010E94A3071CC06A
:100750002A3040F0D6FEF8CF2F7D3FEE320F3630F4
:1007600098F727504D2DC501B4010E9411034B018C
:100770005C018D2D8260D82ECA94CC2059F0C8011E
:100780000E942D0797FFDACFD1FC04C09CCF812CAB
:10079000912C5401D7FE08C0B094A09490948094FA
:1007A000811C911CA11CB11C2D2DB501A401C701F8
:1007B0000E94050381E02196ECE00C943F08A1E241
:1007C000B0E0E5EEF3E00C9421085C017A01CE0183
:1007D00001966C0180E2F60111928A95E9F7F50124
:1007E000838040E050E0912C712C70E0A1E0B0E0FB
:1007F000F90183FC859183FE81918F01982F9F01E0
:10080000811103C080E090E07CC08E3519F4411561
:10081000510549F1E72FF0E0E417F5073CF48D3579
:1008200059F18D3219F4772001F103C0711001C024
:10083000982E892F8695869586958601080F111D1D
:10084000892F87703D0101C0660C8A95EAF7F8018F
:10085000808186298083991559F0991510F49F5F3E
:10086000E8CF9150E6CF71E004C07724739401C0C3
:10087000712C4F5F5F4FBCCF772019F08E81806263
:100880008E83711103C09924939416C0F6019E01C2
:100890002F5D3F4F808180958193E217F307D1F759
:1008A000F2CFE114F10429F0F7018083C70101962A
:1008B0007C016150912CF9F0C50169A30E942D07BC
:1008C00069A197FD16C0282F269526952695F60135
:1008D000E20FF11D208130E0AC014770552702C0C6
:1008E000359527954A95E2F720FDDBCFB5010E94AB
:1008F000A307911087CFE114F10411F0F7011082E2
:10090000C801A196EEE00C943D084F925F927F9251
:100910008F929F92AF92BF92CF92DF92EF92FF920F
:100920000F931F93CF93DF931F92CDB7DEB76C0168
:100930002B015A01FC0117821682712CF601F380FB
:10094000F201F3FC8591F3FE8191382F2F0188236A
:1009500009F4F3C090E039830E94FC063981892BA9
:1009600021F0C6010E943103E9CF353241F4F20192
:10097000F3FC3591F3FE31912F01353269F4C60154
:1009800039830E942D07398197FDD5C03817B1F200
:10099000B6010E94A307D1C03A3239F4F3FC359175
:1009A000F3FE31912F0151E001C050E0420110E00F
:1009B00020ED230F2A3090F45260612F70E080E028
:1009C00090E040E259830E941103162FF401F3FCDA
:1009D0003591F3FE31914F015981EACF052F232F35
:1009E000240151FF03C0111102C0A7C01FEF383608
:1009F00019F03C3659F011C0F401F3FC2591F3FED7
:100A000021912F01283649F4052F08600460F20176
:100A1000F3FC2591F3FE21912F01222309F48DC0CF
:100A2000622F70E080E790E029830E94050729810A
:100A3000892B09F482C000FD07C0F501E080F18038
:100A4000C50102965C0102C0E12CF12C2E3651F456
:100A5000F6014681578160E070E0202FC7010E94B7
:100A600005036CCF233691F401FF11E0C6010E940B
:100A70002D0797FD60C0E114F10429F0F701808390
:100A8000C70101967C01115089F751C02B3559F4EB
:100A90009201A701612FC6010E94DF032C01892B5F
:100AA00009F045C03FC0C60129830E943103298156
:100AB00097FD41C02F3659F128F4243631F12936FB
:100AC00049F127C0233769F02537F9F022C0E11436
:100AD000F10429F0F7018082C70101967C011150D1
:100AE00071F0C6010E942D074C0197FD08C00E94BD
:100AF000FC06892B61F3B601C4010E94A307E1142F
:100B0000F104A9F0F701108212C0006203C0006175
:100B100001C00064202FA701612FC6010E944A0373
:100B2000811105C0F6018381807329F406C000FDA0
:100B300005CF739403CF772019F0872D90E002C082
:100B40008FEF9FEF0F90DF91CF911F910F91FF904B
:100B5000EF90DF90CF90BF90AF909F908F907F905D
:100B60005F904F9008950F931F93CF93DF93869FCD
:100B70008001879F100D969F100D1124C8010E94BF
:100B8000CF05EC01009729F0A80160E070E00E9419
:100B90001B07CE01DF91CF911F910F910895CF9345
:100BA000DF938230910510F482E090E0E0913A0109
:100BB000F0913B0120E030E0C0E0D0E0309711F14F
:100BC0004081518148175907C0F04817590761F40F
:100BD00082819381209719F09B838A832BC0909305
:100BE0003B0180933A0126C02115310519F04217C7
:100BF000530718F49A01BE01DF01EF010280F3816F
:100C0000E02DDCCF2115310509F1281B390B2430EB
:100C1000310590F412968D919C9113976115710591
:100C200021F0FB019383828304C090933B01809366
:100C30003A01FD01329644C0FD01E20FF31F81939A
:100C40009193225031092D933C933AC02091380161
:100C500030913901232B41F420910201309103019D
:100C60003093390120933801209100013091010126
:100C70002115310541F42DB73EB740910401509143
:100C80000501241B350BE0913801F0913901E21781
:100C9000F307A0F42E1B3F0B2817390778F0AC019F
:100CA0004E5F5F4F2417350748F04E0F5F1F50937C
:100CB0003901409338018193919302C0E0E0F0E064
:100CC000CF01DF91CF9108950F931F93CF93DF93BF
:100CD000009709F48CC0FC013297138212820091B4
:100CE0003A0110913B010115110581F420813181F8
:100CF000820F931F2091380130913901281739074D
:100D000079F5F0933901E093380171C0D80140E0E2
:100D100050E0AE17BF0750F412962D913C911397F7
:100D2000AD012115310509F1D901F3CF9D01DA019A
:100D30003383228360817181860F971F8217930707
:100D400069F4EC0128813981260F371F2E5F3F4F50
:100D5000318320838A819B8193838283452B29F46D
:100D6000F0933B01E0933A0142C01396FC93EE935B
:100D70001297ED01499159919E01240F351FE217F9
:100D8000F30771F480819181840F951F029611966B
:100D90009C938E938281938113969C938E9312974A
:100DA000E0E0F0E0D80112968D919C9113970097A6
:100DB00019F0F8018C01F6CF8D919C9198012E5F6E
:100DC0003F4F820F931F209138013091390128172E
:100DD000390769F4309729F410923B0110923A01D7
:100DE00002C0138212821093390100933801DF91FF
:100DF000CF911F910F91089591110C941A08803290
:100E000019F089508550C8F70895FC010590061621
:100E100021F00020D9F7C00108953197CF0108953E
:100E2000FC010590615070400110D8F780959095B5
:100E30008E0F9F1F0895DC0101C06D9341505040FB
:100E4000E0F70895FC016150704001900110D8F75F
:100E5000809590958E0F9F1F0895CF93DF93EC019F
:100E60002B8120FF33C026FF0AC02F7B2B838E816E
:100E70009F8101969F838E838A8190E029C022FF03
:100E80000FC0E881F9818081082E000C990B009732
:100E900019F420622B831AC03196F983E8830EC0BF
:100EA000EA85FB85099597FF09C02B81019611F012
:100EB00080E201C080E1822B8B8308C02E813F81BC
:100EC0002F5F3F4F3F832E83992702C08FEF9FEF05
:100ED000DF91CF9108950F931F93CF93DF93FB0181
:100EE000238121FD03C08FEF9FEF28C022FF16C092
:100EF00046815781248135814217530744F4A081EC
:100F0000B1819D012F5F3F4F318320838C932681D8
:100F100037812F5F3F4F3783268310C0EB01092FA6
:100F2000182F0084F185E02D0995892BE1F68E813B
:100F30009F8101969F838E83812F902FDF91CF9188
:100F40001F910F910895FB01238120FF12C026FD00
:100F500010C08F3F3FEF930761F082832F7D2064A5
:100F600023832681378121503109378326839927AE
:100F700008958FEF9FEF0895FA01AA27283051F1C5
:100F8000203181F1E8946F936E7F6E5F7F4F8F4FBA
:100F90009F4FAF4FB1E03ED0B4E03CD0670F781F19
:100FA000891F9A1FA11D680F791F8A1F911DA11DFE
:100FB0006A0F711D811D911DA11D20D009F4689437
:100FC0003F912AE0269F11243019305D3193DEF6DF
:100FD000CF010895462F4770405D4193B3E00FD095
:100FE000C9F7F6CF462F4F70405D4A3318F0495D80
:100FF00031FD4052419302D0A9F7EACFB4E0A69563
:101000009795879577956795BA95C9F70097610584
:10101000710508959B01AC010A2E069457954795DA
:1010200037952795BA95C9F7620F731F841F951FCF
:10103000A01D08959927882708952F923F924F92D7
:101040005F926F927F928F929F92AF92BF92CF9258
:10105000DF92EF92FF920F931F93CF93DF93CDB761
:10106000DEB7CA1BDB0B0FB6F894DEBF0FBECDBFD9
:1010700009942A88398848885F846E847D848C84AA
:101080009B84AA84B984C884DF80EE80FD800C81B3
:101090001B81AA81B981CE0FD11D0FB6F894DEBF96
:0C10A0000FBECDBFED010895F894FFCF06
:1010AC0000003C0120004865696865690077726939
:1010BC00746520736F6D657468696E6720002573A5
:1010CC0000596F75722077726F74653A2025730A18
:0210DC000D0005
:00000001FF
