S00F0000616463546573742E737265634D
S11300000C9438000C9455000C9455000C94550035
S11300100C9455000C9455000C9455000C94550008
S11300200C9455000C9455000C9455000C945500F8
S11300300C9455000C9455000C9455000C945500E8
S11300400C9455000C9455000C9455000C945500D8
S11300500C9455000C9455000C9455000C945500C8
S11300600C9455000C9455000C9455000C945500B8
S113007011241FBECFEFD4E0DEBFCDBF12E0A0E05D
S1130080B1E0E8E3FCE002C005900D92A433B107AF
S1130090D9F722E0A4E3B2E001C01D92A134B20773
S11300A0E1F70E9479010C941A060C9400005F9BFE
S11300B0FECF8CB108955D9BFECF8CB9089590BDA1
S11300C089B988E18AB98EE880BD089585B78068CA
S11300D085BF80B7806280BF08953098B8988A98A9
S11300E08B98389AC09A929893980895813069F0C1
S11300F028F0823089F08330B1F01CC0E091060111
S1130100F091070184E080830895E0910601F09165
S1130110070185E080830895E0910601F0910701CD
S113012086E080830895E0910601F091070187E05D
S11301308083089588E091E09F938F930E940D023D
S11301400F900F9008950E9476002899FECFE091B9
S11301500601F09107018081809336028091360276
S1130160089580E00E94A3001F928F9388E191E09C
S11301709F938F930E940D0281E00E94A3001F921F
S11301808F938DE291E09F938F930E940D028DB720
S11301909EB708960FB6F8949EBF0FBE8DBF089504
S11301A08058992787FD90959C01992324F4222750
S11301B03327281B390BA9016058772767FD7095F1
S11301C09B01772324F422273327261B370B4A313C
S11301D010F42A3180F033272817390774F0319549
S11301E0219531098217930754F05527461757076D
S11301F044F484E0089580E0089582E0089581E065
S1130200089583E0089583E00E94A300809334025C
S113021082E00E94A300809335020895CF93DF9378
S113022083E00E94A300D82F82E00E94A300C82F7D
S1130230682F8D2F0E94D0008230E9F028F48823A3
S113024041F0813079F032C08330F1F0843029F10B
S11302502DC021E431E03F932F930E940D020F90B3
S11302600F902CC02AE431E03F932F930E940D029B
S11302700F900F9023C021E531E03F932F930E940C
S11302800D020F900F901AC029E531E03F932F9390
S11302900E940D020F900F9011C02BEB31E03F93A1
S11302A02F930E940D020F900F9008C020E631E0BA
S11302B03F932F930E940D020F900F901F92DF9394
S11302C020EC31E03F932F930E940D021F92CF93B5
S11302D083ED91E09F938F930E940D028DB79EB79B
S11302E008960FB6F8949EBF0FBE8DBFDF91CF91D5
S11302F008958FE190E00E945F0067E570E08BE570
S113030090E00E94C2010E9466000E946D000E945B
S1130310030186EE91E09F938F930E940D020F904C
S11303200F900F2EF1EFEF2EF1E0FF2EF02D06E0EF
S113033012E0CCE1D2E0829B06C0FF92EF920E94D1
S11303400D020F900F90839B06C01F930F930E9482
S11303500D020F900F9086B3811106C0DF93CF93E7
S11303600E940D020F900F900E940E010E94B10096
S11303709FEF2FE787E0915020408040E1F700C0D5
S11303800000D9CF0F931F93CF93DF93EC018B0120
S1130390009731F46115710519F480E090E038C0DC
S11303A06EE070E081E090E00E94F303FC010097AE
S11303B0A1F380E883830115110571F01387028787
S11303C081E883838091370290913802892B21F44C
S11303D0F0933802E09337022097C9F0D187C087A1
S11303E08381826083838091390290913A02892BC0
S11303F071F4F0933A02E093390280913B029091B8
S11304003C02892B21F4F0933C02E0933B02CF01A0
S1130410DF91CF911F910F910895A0E0B0E0E3E147
S1130420F2E00C94F305FE01359661917191AF01F0
S11304308091390290913A020E942102E2E00C94E8
S11304400F06ACE0B0E0E7E2F2E00C94E3057C01D7
S11304506B018A01FC0117821682838181FFBDC171
S1130460CE0101964C01F7019381F60193FD85912C
S113047093FF81916F01882309F4ABC1853239F46C
S113048093FD859193FF81916F01853229F4B70122
S113049090E00E945305E7CF512C312C20E020320C
S11304A0A0F48B3269F030F4803259F0833269F46D
S11304B020612CC08D3239F0803339F4216026C09C
S11304C02260246023C0286021C027FD27C030EDAE
S11304D0380F3A3078F426FF06C0FAE05F9E300DFC
S11304E01124532E13C08AE0389E300D1124332E6C
S11304F020620CC08E3221F426FD6BC1206406C03C
S11305008C3611F4206802C0883641F4F60193FD5C
S1130510859193FF81916F018111C1CF982F9F7DA8
S11305209554933028F40C5F1F4FFFE3F9830DC0FB
S1130530833631F0833771F0833509F05BC022C014
S1130540F801808189830E5F1F4F44244394512C0A
S1130550540115C03801F2E06F0E711CF801A0803F
S1130560B18026FF03C0652D70E002C06FEF7FEFFE
S1130570C5012C870E9448052C0183012C852F7707
S1130580222E17C03801F2E06F0E711CF801A08012
S1130590B18026FF03C0652D70E002C06FEF7FEFCE
S11305A0C5012C870E9436052C012C852068222E3B
S11305B0830123FC1BC0832D90E048165906B0F438
S11305C0B70180E290E00E9453053A94F4CFF5011C
S11305D027FC859127FE81915F01B70190E00E947D
S11305E0530531103A94F1E04F1A51084114510463
S11305F071F7E5C0843611F0893639F5F80127FF23
S113060007C060817181828193810C5F1F4F08C094
S113061060817181882777FD8095982F0E5F1F4F29
S11306202F76B22E97FF09C09095809570956195AD
S11306307F4F8F4F9F4F2068B22E2AE030E0A401F5
S11306400E948505A82EA81844C0853729F42F7E5A
S1130650B22E2AE030E025C0F22FF97FBF2E8F366C
S1130660C1F018F4883579F0B4C0803719F08837B0
S113067021F0AFC02F2F2061B22EB4FE0DC08B2D00
S11306808460B82E09C024FF0AC09F2F9660B92E3B
S113069006C028E030E005C020E130E002C020E1DF
S11306A032E0F801B7FE07C06081718182819381D5
S11306B00C5F1F4F06C06081718180E090E00E5F87
S11306C01F4FA4010E948505A82EA818FB2DFF77B3
S11306D0BF2EB6FE0BC02B2D2E7FA51450F4B4FEF6
S11306E00AC0B2FC08C02B2D2E7E05C07A2C2B2DFF
S11306F003C07A2C01C0752C24FF0DC0FE01EA0D45
S1130700F11D8081803311F4297E09C022FF06C0C7
S11307107394739404C0822F867809F0739423FD34
S113072013C020FF06C05A2C731418F4530C571826
S1130730732C731468F4B70180E290E02C870E9454
S1130740530573942C85F5CF731410F4371801C036
S1130750312C24FF12C0B70180E390E02C870E9463
S113076053052C8522FF17C021FF03C088E590E0C4
S113077002C088E790E0B7010CC0822F867859F058
S113078021FD02C080E201C08BE227FD8DE2B701AA
S113079090E00E945305A51438F4B70180E390E07B
S11307A00E9453055A94F7CFAA94F401EA0DF11D5F
S11307B08081B70190E00E945305A110F5CF33204A
S11307C009F451CEB70180E290E00E9453053A94B7
S11307D0F6CFF7018681978102C08FEF9FEF2C96A9
S11307E0E2E10C94FF050F931F93CF93DF93869F51
S11307F08001879F100D969F100D1124C8010E943F
S11308000F04EC01009729F0A80160E070E00E9459
S11308104105CE01DF91CF911F910F910895CF93A0
S1130820DF938230910510F482E090E0E0913F0282
S1130830F091400220E030E0A0E0B0E0309739F1E0
S11308404081518148175907B8F04817590771F486
S113085082819381109729F013969C938E9312971B
S11308602CC09093400280933F0227C0211531058C
S113087031F04217530718F0A901DB0101C0EF0161
S11308809A01BD01DF010280F381E02DD7CF21154C
S11308903105F9F0281B390B2430310580F48A81A5
S11308A09B816115710521F0FB019383828304C050
S11308B09093400280933F02FE01329644C0FE01B1
S11308C0E20FF31F819391932250310939832883D6
S11308D03AC020913D0230913E02232B41F42091F5
S11308E002013091030130933E0220933D02209196
S11308F00001309101012115310541F42DB73EB7B6
S11309004091040150910501241B350BE0913D02F7
S1130910F0913E02E217F307A0F42E1B3F0B2817B9
S1130920390778F0AC014E5F5F4F2417350748F064
S11309304E0F5F1F50933E0240933D02819391936B
S113094002C0E0E0F0E0CF01DF91CF910895CF93B2
S1130950DF93009709F487C0FC0132971382128257
S1130960C0913F02D0914002209781F420813181CF
S1130970280F391F80913D0290913E028217930700
S113098079F5F0933E02E0933D026DC0DE0120E074
S113099030E0AE17BF0750F412964D915C91139757
S11309A09D014115510509F1DA01F3CFB383A28307
S11309B040815181840F951F8A179B0771F48D9193
S11309C09C911197840F951F0296918380831296B0
S11309D08D919C911397938382832115310529F47A
S11309E0F0934002E0933F023EC0D9011396FC937A
S11309F0EE9312974D915D91A40FB51FEA17FB0773
S1130A0079F480819181840F951F0296D901119602
S1130A109C938E938281938113969C938E931297C9
S1130A20E0E0F0E08A819B81009719F0FE01EC017F
S1130A30F9CFCE01029628813981820F931F20912C
S1130A403D0230913E022817390769F4309729F4A2
S1130A501092400210923F0202C013821282D0937D
S1130A603E02C0933D02DF91CF910895FC010590B1
S1130A70615070400110D8F7809590958E0F9F1F9C
S1130A800895DC0101C06D9341505040E0F7089592
S1130A90FC016150704001900110D8F78095909549
S1130AA08E0F9F1F08950F931F93CF93DF93182FDB
S1130AB0092FEB018B8181FD03C08FEF9FEF20C0D5
S1130AC082FF10C04E815F812C813D814217530704
S1130AD07CF4E881F9819F012F5F3F4F398328839C
S1130AE0108306C0E885F985812F0995892B29F79C
S1130AF02E813F812F5F3F4F3F832E83812F902F85
S1130B00DF91CF911F910F910895FA01AA27283000
S1130B1051F1203181F1E8946F936E7F6E5F7F4FC6
S1130B208F4F9F4FAF4FB1E03ED0B4E03CD0670F42
S1130B30781F891F9A1FA11D680F791F8A1F911D95
S1130B40A11D6A0F711D811D911DA11D20D009F4E5
S1130B5068943F912AE0269F11243019305D319327
S1130B60DEF6CF010895462F4770405D4193B3E010
S1130B700FD0C9F7F6CF462F4F70405D4A3318F0B7
S1130B80495D31FD4052419302D0A9F7EACFB4E068
S1130B90A6959795879577956795BA95C9F7009720
S1130BA06105710508959B01AC010A2E06945795C1
S1130BB0479537952795BA95C9F7620F731F841F18
S1130BC0951FA01D08952F923F924F925F926F92AE
S1130BD07F928F929F92AF92BF92CF92DF92EF92C9
S1130BE0FF920F931F93CF93DF93CDB7DEB7CA1B4A
S1130BF0DB0B0FB6F894DEBF0FBECDBF09942A8875
S1130C00398848885F846E847D848C849B84AA841C
S1130C10B984C884DF80EE80FD800C811B81AA81A9
S1130C20B981CE0FD11D0FB6F894DEBF0FBECDBF74
S10B0C30ED010895F894FFCFD3
S1130C380000410220000014496E76616C6964204A
S1130C486368616E6E656C000A0D4C65667420738A
S1130C586C696465723A202564200A0D005269673C
S1130C68687420736C696465723A202564200A0DDF
S1130C780043454E5445520A0D004C4546540A0D4E
S1130C880052494748540A0D00444F574E0A0D0074
S1130C985468652066756E6374696F6E2067657441
S1130CA85F6A6F79737469636B5F6469726563748F
S1130CB8696F6E206973206E6F7420726574757223
S1130CC86E696E67206E6F6E65206F662074686546
S1130CD873653A2043454E5445522F4C4546542F8C
S1130CE852494748542F444F574E2F55500A0D0028
S1130CF84A6F79737469636B2058203D20256420FA
S1130D080A0D004A6F79737469636B2059203D207A
S1130D182564200A0D005374617274205465737439
S1130D28004C65667420627574746F6E20574F5258
S1130D384B53210A0D0052696768742062757474F4
S1130D486F6E20574F524B53210A0D0043656E7442
S1130D58657220627574746F6E20574F524B53211D
S1070D680A0D00006C
S9030000FC
