S00F0000616463546573742E737265634D
S11300000C9438000C94B2000C94DC000C9488001E
S11300100C9455000C9455000C9455000C94550008
S11300200C9455000C9455000C9455000C945500F8
S11300300C9455000C9455000C9455000C945500E8
S11300400C9455000C9455000C9455000C945500D8
S11300500C9455000C9455000C9455000C945500C8
S11300600C9455000C9455000C9455000C945500B8
S113007011241FBECFEFD4E0DEBFCDBF11E0A0E05E
S1130080B1E0E4ECFBE002C005900D92A836B107A4
S1130090D9F721E0A8E6B1E001C01D92A337B20769
S11300A0E1F70E9441010C94E0050C9400005F9B71
S11300B0FECF8CB108955D9BFECF8CB9089590BDA1
S11300C089B988E18AB98EE880BD089585B78068CA
S11300D085BF80B7806280BF089530988A988B98D6
S11300E0389A92989398F89486B7826086BF86B7B8
S11300F0816086BF86B7886086BF86B7846086BF06
S11301008BB780648BBF8BB780688BBF789408955E
S11301101F920F920FB60F9211242F933F934F9378
S11301205F936F937F938F939F93AF93BF93EF935B
S1130130FF9388E091E09F938F930E94D3010F90E7
S11301400F90FF91EF91BF91AF919F918F917F910C
S11301506F915F914F913F912F910F900FBE0F9030
S11301601F9018951F920F920FB60F9211242F9380
S11301703F934F935F936F937F938F939F93AF932B
S1130180BF93EF93FF938FE091E09F938F930E942F
S1130190D3010F900F90FF91EF91BF91AF919F9179
S11301A08F917F916F915F914F913F912F910F901C
S11301B00FBE0F901F9018951F920F920FB60F92BB
S11301C011242F933F934F935F936F937F938F9358
S11301D09F93AF93BF93EF93FF9386E191E09F9337
S11301E08F930E94D3010F900F90FF91EF91BF91D5
S11301F0AF919F918F917F916F915F914F913F91BB
S11302002F910F900FBE0F901F901895813069F0B9
S113021028F0823089F08330B1F01CC0E0910601EF
S1130220F091070184E080830895E0910601F09144
S1130230070185E080830895E0910601F0910701AC
S113024086E080830895E0910601F091070187E03C
S1130250808308958DE191E09F938F930E94D30151
S11302600F900F9008950E9406012899FECFE09107
S11302700601F091070180818093680180916801F3
S113028008958FE190E00E945F0067E570E08BE5E0
S113029090E00E9488010E9466000E946D0082E046
S11302A00E9406018DE291E09F938F930E94D301F7
S11302B00F900F900F2EF8E3EF2EF1E0FF2EF02DAC
S11302C00DE411E0C3E6D1E0829B06C0FF92EF92F9
S11302D00E94D3010F900F90839B06C01F930F932E
S11302E00E94D3010F900F9081E00E9433011F926E
S11302F08F93DF93CF930E94D3018FEF9FE20197F7
S1130300F1F700C000000F900F900F900F90DCCF1A
S11303100F931F93CF93DF93EC018B01009731F47C
S11303206115710519F480E090E038C06EE070E06A
S113033081E090E00E94B903FC010097A1F380E8FA
S113034083830115110571F01387028781E8838384
S11303508091690190916A01892B21F4F0936A01DB
S1130360E09369012097C9F0D187C08783818260B7
S1130370838380916B0190916C01892B71F4F093CC
S11303806C01E0936B0180916D0190916E01892B5A
S113039021F4F0936E01E0936D01CF01DF91CF91D1
S11303A01F910F910895A0E0B0E0E9EDF1E00C9405
S11303B0B905FE01359661917191AF0180916B0190
S11303C090916C010E94E701E2E00C94D505ACE049
S11303D0B0E0EDEEF1E00C94A9057C016B018A011B
S11303E0FC0117821682838181FFBDC1CE01019673
S11303F04C01F7019381F60193FD859193FF81915F
S11304006F01882309F4ABC1853239F493FD8591DA
S113041093FF81916F01853229F4B70190E00E9426
S11304201905E7CF512C312C20E02032A0F48B3277
S113043069F030F4803259F0833269F420612CC0C1
S11304408D3239F0803339F4216026C02260246073
S113045023C0286021C027FD27C030ED380F3A3073
S113046078F426FF06C0FAE05F9E300D1124532E67
S113047013C08AE0389E300D1124332E20620CC044
S11304808E3221F426FD6BC1206406C08C3611F433
S1130490206802C0883641F4F60193FD859193FFEC
S11304A081916F018111C1CF982F9F7D9554933015
S11304B028F40C5F1F4FFFE3F9830DC0833631F03E
S11304C0833771F0833509F05BC022C0F801808165
S11304D089830E5F1F4F44244394512C540115C04B
S11304E03801F2E06F0E711CF801A080B18026FF84
S11304F003C0652D70E002C06FEF7FEFC5012C874C
S11305000E940E052C0183012C852F77222E17C003
S11305103801F2E06F0E711CF801A080B18026FF53
S113052003C0652D70E002C06FEF7FEFC5012C871B
S11305300E94FC042C012C852068222E830123FCBC
S11305401BC0832D90E048165906B0F4B70180E231
S113055090E00E9419053A94F4CFF50127FC8591A7
S113056027FE81915F01B70190E00E9419053110C7
S11305703A94F1E04F1A51084114510471F7E5C05F
S1130580843611F0893639F5F80127FF07C06081F8
S11305907181828193810C5F1F4F08C060817181DA
S11305A0882777FD8095982F0E5F1F4F2F76B22EE8
S11305B097FF09C090958095709561957F4F8F4FF7
S11305C09F4F2068B22E2AE030E0A4010E944B0520
S11305D0A82EA81844C0853729F42F7EB22E2AE00D
S11305E030E025C0F22FF97FBF2E8F36C1F018F40A
S11305F0883579F0B4C0803719F0883721F0AFC05E
S11306002F2F2061B22EB4FE0DC08B2D8460B82E26
S113061009C024FF0AC09F2F9660B92E06C028E0A7
S113062030E005C020E130E002C020E132E0F80112
S1130630B7FE07C060817181828193810C5F1F4F77
S113064006C06081718180E090E00E5F1F4FA401BD
S11306500E944B05A82EA818FB2DFF77BF2EB6FECF
S11306600BC02B2D2E7FA51450F4B4FE0AC0B2FC8F
S113067008C02B2D2E7E05C07A2C2B2D03C07A2C7E
S113068001C0752C24FF0DC0FE01EA0DF11D80810F
S1130690803311F4297E09C022FF06C07394739439
S11306A004C0822F867809F0739423FD13C020FFC1
S11306B006C05A2C731418F4530C5718732C731463
S11306C068F4B70180E290E02C870E9419057394C6
S11306D02C85F5CF731410F4371801C0312C24FF86
S11306E012C0B70180E390E02C870E9419052C8585
S11306F022FF17C021FF03C088E590E002C088E70D
S113070090E0B7010CC0822F867859F021FD02C019
S113071080E201C08BE227FD8DE2B70190E00E94E8
S11307201905A51438F4B70180E390E00E94190577
S11307305A94F7CFAA94F401EA0DF11D8081B70110
S113074090E00E941905A110F5CF332009F451CE91
S1130750B70180E290E00E9419053A94F6CFF701C0
S11307608681978102C08FEF9FEF2C96E2E10C9473
S1130770C5050F931F93CF93DF93869F8001879FB7
S1130780100D969F100D1124C8010E94D503EC0191
S1130790009729F0A80160E070E00E940705CE01EF
S11307A0DF91CF911F910F910895CF93DF93823002
S11307B0910510F482E090E0E0917101F0917201F2
S11307C020E030E0A0E0B0E0309739F14081518181
S11307D048175907B8F04817590771F48281938173
S11307E0109729F013969C938E9312972CC0909394
S11307F072018093710127C02115310531F0421730
S1130800530718F0A901DB0101C0EF019A01BD01F2
S1130810DF010280F381E02DD7CF21153105F9F0F6
S1130820281B390B2430310580F48A819B816115A2
S1130830710521F0FB019383828304C090937201BC
S113084080937101FE01329644C0FE01E20FF31F52
S11308508193919322503109398328833AC020919E
S11308606F0130917001232B41F4209102013091EA
S113087003013093700120936F01209100013091A6
S113088001012115310541F42DB73EB74091040112
S113089050910501241B350BE0916F01F09170011B
S11308A0E217F307A0F42E1B3F0B2817390778F043
S11308B0AC014E5F5F4F2417350748F04E0F5F1FA2
S11308C05093700140936F018193919302C0E0E0D3
S11308D0F0E0CF01DF91CF910895CF93DF9300979C
S11308E009F487C0FC01329713821282C09171010E
S11308F0D0917201209781F420813181280F391F12
S113090080916F01909170018217930779F5F093AC
S11309107001E0936F016DC0DE0120E030E0AE179E
S1130920BF0750F412964D915C9113979D014115A8
S1130930510509F1DA01F3CFB383A28340815181D8
S1130940840F951F8A179B0771F48D919C911197C1
S1130950840F951F02969183808312968D919C91AA
S11309601397938382832115310529F4F09372013F
S1130970E09371013EC0D9011396FC93EE93129754
S11309804D915D91A40FB51FEA17FB0779F480819F
S11309909181840F951F0296D90111969C938E9391
S11309A08281938113969C938E931297E0E0F0E0FA
S11309B08A819B81009719F0FE01EC01F9CFCE01E9
S11309C0029628813981820F931F20916F01309103
S11309D070012817390769F4309729F410927201CD
S11309E01092710102C013821282D0937001C093DD
S11309F06F01DF91CF910895FC0105906150704023
S1130A000110D8F7809590958E0F9F1F0895DC01F3
S1130A1001C06D9341505040E0F70895FC016150CE
S1130A20704001900110D8F7809590958E0F9F1F0C
S1130A3008950F931F93CF93DF93182F092FEB0182
S1130A408B8181FD03C08FEF9FEF20C082FF10C018
S1130A504E815F812C813D81421753077CF4E881EC
S1130A60F9819F012F5F3F4F39832883108306C08C
S1130A70E885F985812F0995892B29F72E813F81F6
S1130A802F5F3F4F3F832E83812F902FDF91CF9194
S1130A901F910F910895FA01AA27283051F12031AE
S1130AA081F1E8946F936E7F6E5F7F4F8F4F9F4FFE
S1130AB0AF4FB1E03ED0B4E03CD0670F781F891F40
S1130AC09A1FA11D680F791F8A1F911DA11D6A0F0E
S1130AD0711D811D911DA11D20D009F468943F91C1
S1130AE02AE0269F11243019305D3193DEF6CF01C0
S1130AF00895462F4770405D4193B3E00FD0C9F786
S1130B00F6CF462F4F70405D4A3318F0495D31FDF2
S1130B104052419302D0A9F7EACFB4E0A695979545
S1130B20879577956795BA95C9F70097610571051B
S1130B3008959B01AC010A2E069457954795379565
S1130B402795BA95C9F7620F731F841F951FA01DBF
S1130B5008952F923F924F925F926F927F928F925D
S1130B609F92AF92BF92CF92DF92EF92FF920F9338
S1130B701F93CF93DF93CDB7DEB7CA1BDB0B0FB642
S1130B80F894DEBF0FBECDBF09942A8839884888FF
S1130B905F846E847D848C849B84AA84B984C88495
S1130BA0DF80EE80FD800C811B81AA81B981CE0F8C
S1130BB0D11D0FB6F894DEBF0FBECDBFED01089571
S1070BC0F894FFCFD3
S1130BC40000730120000014494E54320A0D0049F8
S1130BD44E54300A0D00494E54310A0D00496E76C4
S1130BE4616C6964206368616E6E656C0053746142
S1130BF472742054657374004C6566742062757451
S1130C04746F6E20574F524B53210A0D005269677B
S1130C14687420627574746F6E20574F524B53215D
S10B0C240A0D0025640A0D000D
S9030000FC
